:1000000012C02CC02BC02AC029C028C027C026C0BF
:1000100025C024C023C022C021C020C01FC01EC0D4
:100020001DC01CC01BC011241FBECFE5D4E0DEBF25
:10003000CDBF10E0A0E6B0E0E0EEF2E002C0059037
:100040000D92AC37B107D9F710E0ACE7B0E001C0D2
:100050001D92AD37B107E1F7C2D040C1D1CF96981C
:1000600085E0982F9A95F1F7969A8A95F1F79698E8
:1000700080E991E00197F1F70895982F80FF02C081
:10008000959A01C09598892F869580FF02C0949A11
:1000900001C09498892F8695869580FF02C0939A17
:1000A00001C09398892F86958695869580FF02C01A
:1000B000929A01C09298D3DF08951F93182F662358
:1000C00011F0979A01C09798812F82958F70D5DF94
:1000D000812FD3DF1F91089561E0EFDF089560E085
:1000E000ECDF0895CF93DF93EC0102C02196F4DF9B
:1000F00088818823D9F7DF91CF91089581E0EFDFE0
:1001000080E49FE10197F1F708950F931F938FEF1C
:1001100081BB9698979884EF91E020E931E0F9014E
:100120003197F1F70197D9F783E0D9DF00E516E4BD
:10013000C8010197F1F783E0D2DFC8010197F1F719
:1001400083E0CDDF88E592E00197F1F782E0C7DF39
:10015000C8010197F1F7D2DF1F910F910895611146
:1001600060E4680F862F8068BADF08951F93CF93ED
:10017000DF93182F80E0612FF2DFC0E0D0E080E253
:10018000ABDF2196C031D105D1F780E0612FE7DFE9
:10019000DF91CF911F910895A19AA9988AEF90E0DD
:1001A00020E931E0F9013197F1F70197D9F7A198EA
:1001B00010927C0085E08A95F1F780E007C08F5FA0
:1001C000883C21F480937C0080E008959999F7CFD2
:1001D00085E08A95F1F710927C0081E00895DF9226
:1001E000EF92FF920F931F93DF93CF93CDB7DEB7BC
:1001F0002B970FB6F894DEBF0FBECDBFA49A85DF54
:1002000080E1D82E7E010894E11CF11C8E010A5F6A
:100210001F4F85B38D2585BBC701BEDF8823C9F37A
:1002200080E060E09CDF80E690E05CDF898190E028
:10023000B8014AE050E00FD055DF80E061E08FDF89
:100240008EE690E04FDF8B8190E0B8014AE050E00D
:1002500002D048DFDECFFB019F01E8944230BCF0C2
:100260004532ACF44A3029F497FB1EF49095819501
:100270009F4F642F77271ED0805D8A330CF0895DF5
:100280008193CB010097A9F716F45DE25193108298
:10029000C90100C0DC01FC01672F71917723E1F7F0
:1002A000329704C07C916D9370836291AE17BF0743
:1002B000C8F30895AA1BBB1B51E107C0AA1FBB1FAF
:1002C000A617B70710F0A61BB70B881F991F5A95E2
:1002D000A9F780959095BC01CD010895F894FFCFC2
:1002E00048554D4944495459202020203A0054454E
:0C02F0004D5045524154555245203A00F3
:00000001FF
